{
  "contractName": "CrowdFunding",
  "abi": [
    {
      "inputs": [],
      "payable": false,
      "stateMutability": "nonpayable",
      "type": "constructor"
    },
    {
      "constant": true,
      "inputs": [],
      "name": "balanceamount",
      "outputs": [
        {
          "internalType": "uint256",
          "name": "",
          "type": "uint256"
        }
      ],
      "payable": false,
      "stateMutability": "view",
      "type": "function"
    },
    {
      "constant": true,
      "inputs": [],
      "name": "registeredUser",
      "outputs": [
        {
          "internalType": "address payable",
          "name": "",
          "type": "address"
        }
      ],
      "payable": false,
      "stateMutability": "view",
      "type": "function"
    },
    {
      "constant": false,
      "inputs": [],
      "name": "donateAmount",
      "outputs": [],
      "payable": true,
      "stateMutability": "payable",
      "type": "function"
    },
    {
      "constant": false,
      "inputs": [],
      "name": "register",
      "outputs": [],
      "payable": false,
      "stateMutability": "nonpayable",
      "type": "function"
    },
    {
      "constant": false,
      "inputs": [],
      "name": "releaseFund",
      "outputs": [],
      "payable": false,
      "stateMutability": "nonpayable",
      "type": "function"
    }
  ],
  "bytecode": "0x60806040526000805534801561001457600080fd5b5033600260006101000a81548173ffffffffffffffffffffffffffffffffffffffff021916908373ffffffffffffffffffffffffffffffffffffffff160217905550610288806100656000396000f3fe60806040526004361061004a5760003560e01c80631aa3a0081461004f578063965044d514610066578063a2ff553914610070578063aa3ee4cf14610087578063beca1ed5146100de575b600080fd5b34801561005b57600080fd5b50610064610109565b005b61006e61014c565b005b34801561007c57600080fd5b50610085610159565b005b34801561009357600080fd5b5061009c610227565b604051808273ffffffffffffffffffffffffffffffffffffffff1673ffffffffffffffffffffffffffffffffffffffff16815260200191505060405180910390f35b3480156100ea57600080fd5b506100f361024d565b6040518082815260200191505060405180910390f35b33600160006101000a81548173ffffffffffffffffffffffffffffffffffffffff021916908373ffffffffffffffffffffffffffffffffffffffff160217905550565b3460005401600081905550565b600260009054906101000a900473ffffffffffffffffffffffffffffffffffffffff1673ffffffffffffffffffffffffffffffffffffffff163373ffffffffffffffffffffffffffffffffffffffff16146101b357600080fd5b600160009054906101000a900473ffffffffffffffffffffffffffffffffffffffff1673ffffffffffffffffffffffffffffffffffffffff166108fc6000549081150290604051600060405180830381858888f1935050505015801561021d573d6000803e3d6000fd5b5060008081905550565b600160009054906101000a900473ffffffffffffffffffffffffffffffffffffffff1681565b6000548156fea265627a7a723158206dc942f2f1c27207a18eb03d07aa43f5a6257e08ab78f0ae75fd72d06c339e6d64736f6c63430005100032",
  "source": "pragma solidity ^0.5.16;\r\ncontract CrowdFunding {  \r\n    uint public balanceamount=0; \r\n     address payable public registeredUser ; \r\n     address owner;\r\n     constructor() public {\r\n         owner=msg.sender;\r\n     }\r\n    function donateAmount() public payable {\r\n            balanceamount=balanceamount+msg.value;\r\n    }\r\n    function register() public{\r\n        registeredUser=msg.sender;\r\n    }\r\n    function releaseFund() public{\r\n        require(msg.sender==owner);\r\n        registeredUser.transfer(balanceamount);\r\n        balanceamount=0;\r\n    }    \r\n}\r\n",
  "sourcePath": "D:\\Student\\contracts\\CrowdFunding.sol",
  "compiler": {
    "name": "solc",
    "version": "0.5.16+commit.9c3226ce.Emscripten.clang"
  },
  "schemaVersion": "3.4.5",
  "updatedAt": "2022-03-19T12:25:32.046Z",
  "devdoc": {
    "methods": {}
  },
  "userdoc": {
    "methods": {}
  }
}